:100000000C9411030C9439030C9439030C943903A8
:100010000C9439030C9439030C9439030C94201B71
:100020000C9439030C9439030C9439030C94390360
:100030000C9439030C9439030C9439030C94390350
:100040000C9488340C9439030C9415390C9446396B
:100050000C9439030C9439030C9439030C94390330
:100060000C9439030C94390329202C202F203220A2
:100070009C203F2042203C2045209C209C209C200E
:100080009C209C209C209C209C209C209C204820E4
:100090005220522052209C209C209C209C205720A3
:1000A00063206F207220752078207B207E208120A5
:1000B0008B2095209820372D532DA031662DA0310F
:1000C000A031A031A031702D7E2DA031862D892D3B
:1000D000912DA42DB42DA031122E1C2E2C2EA0312A
:1000E000A0313B2EA031A031A031A031A031A031F0
:1000F000A031A031A0313A2DA031632D6B2DA0315C
:10010000A031A031A031792DA031A031812D8E2DCB
:10011000A031B12D0B2EA031A031272E2F2E342E41
:10012000172F5D2F702F782FA031A031A031A03173
:10013000AD31AB2FA031BF2FCC2FF12F0E303A3085
:100140005B3079309D30CB30A031F130F530A031CB
:100150007231A031A031A031A031A031A031A03145
:10016000402FA031A0317E2F8A2FA031A031A031A5
:100170009C2FA031A031B82FDB2FA0312D304F3074
:10018000A0318930BE30D730E430A031A0312231E7
:1001900008000000BE922449123EABAAAA2ABECD96
:1001A000CCCC4C3E00000080BEABAAAAAA3E000008
:1001B0000000BF000000803F000000000008417800
:1001C000D3BB4387D1133D190E3CC3BD4282AD2B37
:1001D0003E68EC8276BED98FE1A93E4C80EFFFBE2F
:1001E00001C4FF7F3F00000000002C18002228A05F
:1001F0004009002C097E4250004258A21C32853C26
:10020000283C64283C005EBCE2613FDD83C29C7EEA
:1002100020A3FD1F419DC3217FFCA2401E5F01E37F
:10022000BD3E6082DC237D9FC1421CFEA0E1BF5D1C
:100230000380DE3C62BEE0025CDF81633D7C22C065
:100240009E1D43A1FF4618FAA427799BC584DA387E
:1002500066E5BB5907DB856739BAE406581947A537
:10026000FB7826C49A653BD987045AB8E6A7F91BE0
:1002700045C6987A24F8A6441A99C7257B3A64861D
:10028000D85B05E7B98CD2306EEDB3510F4E10F24A
:10029000AC2F7193CD114FADF3702ECC92D38D6FE7
:1002A00031B2EC0E50AFF1134DCE90722C6D33D1B4
:1002B0008F0C52B0EE326C8ED0530DEFB1F0AE4CCD
:1002C0001291CF2D73CA947628ABF517490856B40E
:1002D000EA6937D58B5709EBB536688AD495CB29AF
:1002E00077F4AA4816E9B7550B88D6346A2B759768
:1002F000C94A14F6A8742AC896154BA9F7B6E80A95
:1003000054D7896B3553762000160250762040185A
:10031000024F75748455035020200A0202492020A0
:100320000A04024420200A4A0343616C2057034315
:100330007963101A024D696E001C024D6178001E2F
:100340000241A14281430044A149C14AC14CA14D8F
:10035000A14E844FC1508351005291538154805516
:1003600004561157C158005900618362A363806429
:10037000C169C16C816D816FC170C1720173C1743B
:10038000A1758178114E6F2050726F66696C65207F
:1003900020202020003A3A454D4F44003A3A454942
:1003A0004E56003A3A4F4B003A3A41434B004D65A6
:1003B0006D6F7279206D61726B656420666F72205B
:1003C00072657365742C206E6F772072657374612B
:1003D00072742E0020736563002D310020250050BB
:1003E000726F66696C6520003A2000202000202A88
:1003F000005374726970626F6172645F6F73504909
:10040000440076312E30002056657273696F6E3A63
:100410002000556E69743A2000436C656172656412
:100420000053657474696E67730004009D050500D0
:10043000A1050500A6050500AB050300B0050401F4
:10044000B3050400B7050300BB050300BE050200A9
:10045000C10500000000537600596573004E6F001F
:100460004D616E75616C20526573657400417574E1
:100470006F20526573657400416C61726D20446930
:100480007361626C656400416C61726D20456E61E0
:10049000626C656400526573756D652050726F669D
:1004A000696C6500486F6C642053657420506F69F7
:1004B0006E74004D616E75616C20436F6E74726F67
:1004C0006C00546865726D6F636F75706C65004485
:1004D0005331384232302B00546865726D69737441
:1004E0006F72005265766572736520416374696F3F
:1004F0006E0044697265637420416374696F6E00B5
:1005000050494420436F6E74726F6C004D616E757C
:10051000616C20436F6E74726F6C004175746F2054
:1005200054756E696E670043616E63656C00526559
:10053000736574204D656D6F72790053656E736FCE
:100540007200416C61726D00506F776572204F6E62
:100550000043616E63656C00436F6E6669670054AB
:10056000756E696E670044617368626F61726400E2
:1005700020250020730020DF460045727200416C88
:1005800061726D00526573756D696E67004C696EBE
:10059000652000204572720020C2B04600010203AF
:1005A000040A0B0C1C060D0E0F1D14071011080970
:1005B00015161718191A1B241213251E1F20212285
:1005C00023262700000000240027002A0000000046
:1005D00000250028002B0000000000230026002931
:1005E00000040404040404040402020202020203DC
:1005F00003030303030102040810204080010204E6
:100600000810200102040810200000000700020169
:1006100000000304060000000000000000001E327D
:10062000563A11241FBECFEFD8E0DEBFCDBF12E097
:10063000A0E0B1E0E2E5FCE702C005900D92A8352C
:10064000B107D9F715E0A8E5B2E001C01D92A33CBF
:10065000B107E1F716E0C2E2D6E004C02297FE013E
:100660000E94F83DCE31D107C9F70E9452380C9450
:10067000273E0C940000009749F144275527481B5A
:10068000590B482359234F3F510509F030F44031AD
:10069000510550F420E030E00CC080E140305807B4
:1006A00030F428E030E005C024E030E002C02CE067
:1006B00030E0FA01022E02C0F695E7950A94E2F7BF
:1006C000EE5FFE4F8081280F311D02C020E030E038
:1006D000C90108950895FC018AE693E0928B818B0D
:1006E000768365831482108289E0818381E082832E
:1006F00083830895CF93DF93EB01CB0167E00E94E2
:100700003A1691E02F81821390E0892FDF91CF91EB
:100710000895EF92FF920F931F93CF93DF93EC0115
:100720008B01E42E8D819E810E947A15FF2407C0E3
:10073000CE01B8010E947A03882359F414C08D8138
:100740009E81B8010E94AB15882329F0FE1459F44C
:10075000EFCF81E001C080E0DF91CF911F910F9139
:10076000FF90EF900895F394EF14A8F3E8CFEF9281
:10077000FF920F931F93CF93DF938C017B01EA01CC
:10078000FC01858196810E944B14F8018581968138
:10079000B7010E944A15F801858196816EEB40E011
:1007A0000E94EC14F801858196810E942E158883A1
:1007B000F801858196810E942E158983F801858133
:1007C00096810E942E158A83F801858196810E9468
:1007D0002E158B83F801858196810E942E158C83BE
:1007E000F801858196810E942E158D83F8018581FF
:1007F00096810E942E158E83F801858196810E9434
:100800002E158F83F801858196810E942E15888789
:10081000F801858196810E944B14DF91CF911F9141
:100820000F91FF90EF900895CF93DF93EA010E941C
:10083000B703CE0168E00E943A1691E02885821342
:1008400090E0892FDF91CF910895EF92FF920F935F
:100850001F93CF93DF93EC017B018A018D819E81F1
:100860000E944B148D819E81B7010E944A158D8193
:100870009E816EE440E00E94EC148D819E81F8011F
:10088000628140E00E94EC148D819E81F8016381B9
:1008900040E00E94EC14F7018081803139F08D81B5
:1008A0009E81F801648140E00E94EC148D819E815C
:1008B0000E944B148D819E8168E448810E94EC1453
:1008C0008881882331F06AE070E080E090E00E9447
:1008D00004358D819E810E944B14DF91CF911F9131
:1008E0000F91FF90EF9008950F931F93CF93DF9395
:1008F000EC018B018D819E810E944B148D819E8124
:10090000B8010E944A158D819E8164EB40E00E94EF
:10091000EC148D819E810E94C114082F8D819E81CF
:100920000E944B1481E0011180E0DF91CF911F9173
:100930000F910895EF92FF920F931F93DF93CF9340
:10094000CDB7DEB72A970FB6F894DEBF0FBECDBF86
:100950007C018B01242FAE014F5F5F4F2A870E94DD
:1009600014042A858823E1F0F80180818031D1F0D8
:100970002A3051F02A3050F02B3021F02C3031F455
:100980008FE705C08FE503C08FE301C08FE18D8342
:10099000C701B801AE014F5F5F4F0E94250402C03E
:1009A00080E001C081E02A960FB6F894DEBF0FBE4A
:1009B000CDBFCF91DF911F910F91FF90EF900895E0
:1009C000DF93CF93CDB7DEB729970FB6F894DEBF8C
:1009D0000FBECDBFFB0120812031B9F0AE014F5FCA
:1009E0005F4F0E941404882391F08D818F3359F05A
:1009F000803418F48F3159F408C08F3551F08F3797
:100A000031F48CE007C08AE005C089E003C080E0D3
:100A100001C08BE029960FB6F894DEBF0FBECDBFA4
:100A2000CF91DF910895AF92BF92CF92DF92EF9274
:100A3000FF920F931F93DF93CF93CDB7DEB76197EC
:100A40000FB6F894DEBF0FBECDBF8C01FC018581CF
:100A500096810E947A15F80114827E010894E11CA7
:100A6000F11C89E0C82ED12CCC0EDD1EBB24B39422
:100A70002BC0C801B7010E947A03882329F1F8012D
:100A80008081882341F4C801B7010E94740488233F
:100A900011F0F801B082C801B701A6010E94B703A6
:100AA000F801A180C801B7010E94E0048A1518F47A
:100AB000F801818104C0C801B7010E94E004F80177
:100AC000818384818F5F8483F80185819681B7015A
:100AD0000E94AB15882369F661960FB6F894DEBFC5
:100AE0000FBECDBFCF91DF911F910F91FF90EF907F
:100AF000DF90CF90BF90AF900895FC01628308957E
:100B0000DF93CF93CDB7DEB729970FB6F894DEBF4A
:100B10000FBECDBFAE014F5F5F4F0E94B70381E0B4
:100B20009981992309F480E029960FB6F894DEBFE5
:100B30000FBECDBFCF91DF910895CF92DF92EF929C
:100B4000FF920F931F93CF93DF93EC016B0141153D
:100B50005105F9F08B818823E1F088818823C9F45D
:100B60000E94D0347B018C01CE0160E070E00E94D5
:100B70008005882371F40E94D0346E197F09800BA0
:100B8000910B6E3E22E0720720E0820720E0920780
:100B900058F3F6018081893039F08930A0F08A302D
:100BA00041F08B3081F40AC06EE570E080E090E0A7
:100BB0000EC06CEB70E080E090E009C067E771E088
:100BC00080E090E004C06EEE72E080E090E00E9471
:100BD0000435DF91CF911F910F91FF90EF90DF903F
:100BE000CF900895CF93DF93EC018D819E810E9479
:100BF0004B148D819E810E9475158D819E8164E4C8
:100C000048810E94EC148A81882341F0BE016F5F05
:100C10007F4FCE0140E050E00E949D05DF91CF91D3
:100C200008958F929F92AF92BF92CF92DF92EF92F0
:100C3000FF921F93CF93DF93FB01EA01998180E03C
:100C4000688170E0682B792B8081823231F08832A4
:100C500021F0803109F079C047C08C818F3329F1B0
:100C6000803420F48F3109F070C02EC08F3571F0C0
:100C70008F3709F06AC0882777FD8095982F0E94EA
:100C8000973B20E030E040E85DE30CC07595679548
:100C9000882777FD8095982F0E94973B20E030E0D1
:100CA00040E05EE30E94903C50C075956795759555
:100CB0006795882777FD8095982F0E94973B20E0C5
:100CC00030E040E85EE3EECF23E0759567952A9526
:100CD000E1F7882777FD8095982F0E94973B20E0C9
:100CE00030E040E05FE3DECF1F8175956795882790
:100CF00077FD8095982F0E94973B20E030E040E8F8
:100D00005EE30E94933A4B015C01612F70E08E819B
:100D1000681B7109882777FD8095982F0E94973B63
:100D20006B017C01612F70E080E090E00E94953BB8
:100D30009B01AC01C701B6010E94FC3A9B01AC01CA
:100D4000C501B4010E94943A00C0DF91CF911F9178
:100D5000FF90EF90DF90CF90BF90AF909F908F90DB
:100D60000895CF92DF92EF92FF920F931F93DF933C
:100D7000CF93CDB7DEB729970FB6F894DEBF0FBE7D
:100D8000CDBF7C016B018E010F5F1F4FA8010E9438
:100D90001404882331F0C701B601A8010E9411068E
:100DA00004C060E070E08EEF92EC29960FB6F894E4
:100DB000DEBF0FBECDBFCF91DF911F910F91FF908E
:100DC000EF90DF90CF900895EF92FF920F931F93D3
:100DD000DF93CF93CDB7DEB728970FB6F894DEBF79
:100DE0000FBECDBF7C01462F8E010F5F1F4FB80194
:100DF0000E948903C701B8010E94B10628960FB668
:100E0000F894DEBF0FBECDBFCF91DF911F910F9140
:100E1000FF90EF9008959C012627622F629562272C
:100E2000062E669566956025062E66956025677088
:100E3000022E232F669507946795302D262706945A
:100E4000679530252627C9010895EF92FF920F93E9
:100E50001F93CF93DF93EC018B01EA80FB80C701E6
:100E60000E94113EF8016081861729F0C7010E9497
:100E7000193E0E94582B88819981F80160810E9457
:100E80000B07998388838A819B8101969B838A8340
:100E9000DF91CF911F910F91FF90EF900895BF9236
:100EA000CF92DF92EF92FF920F931F93CF93DF9336
:100EB000EC01062F172F82E0B82EEA80FB80C701D5
:100EC0000E94113E6801F8016081861729F0C70170
:100ED0000E94193E0E94582B0F5F1F4F88819981F5
:100EE000F60160810E940B07998388838A819B8128
:100EF00001969B838A83BA9401F7DF91CF911F916A
:100F00000F91FF90EF90DF90CF90BF900895BF9228
:100F1000CF92DF92EF92FF920F931F93CF93DF93C5
:100F2000EC01062F172F94E0B92EEA80FB80C70151
:100F30000E94113E6801F8016081861729F0C701FF
:100F40000E94193E0E94582B0F5F1F4F8881998184
:100F5000F60160810E940B07998388838A819B81B7
:100F600001969B838A83BA9401F7DF91CF911F91F9
:100F70000F91FF90EF90DF90CF90BF900895CF93A7
:100F8000DF93EB010E94113E8883DF91CF9108959A
:100F90000F931F93CF93DF93EC018B010E94113EBF
:100FA000F8018083CE0101960E94113EF8018183F1
:100FB000DF91CF911F910F910895FF920F931F938F
:100FC000CF93DF93EC018B0124E0F22ECE010E943F
:100FD000113EF80181938F012196FA94B9F7DF91C0
:100FE000CF911F910F91FF9008950F931F93CF936F
:100FF000DF93EC018B010E94113EF801608186179E
:1010000029F0CE010E94193E0E94582B2196CE0154
:101010000E94113EF8016181861729F0CE010E94DD
:10102000193E0E94582BDF91CF911F910F91089587
:10103000FB0162E0292F3327AC0150707191F999BF
:10104000FECF1FBA22BD41BD70BDFD9A0FB6F89408
:10105000FA9AF99A0FBE0196615061F70895CF93FD
:10106000DF93EC01862F688349832A8360E00E9426
:101070009D35898161E00E949D358A8161E00E94F1
:101080009D35898161E00E94E2358A8160E00E949D
:10109000E235DF91CF9108958F929F92AF92BF92E8
:1010A000CF92DF92EF92FF920F931F93CF93DF9334
:1010B000EC01898160E00E94E235CC24DD247601D8
:1010C0000FE110E081E0882E912CA12CB12C8A81B7
:1010D00061E00E94E23588810E941A36009771F023
:1010E000D501C401002E04C0880F991FAA1FBB1F81
:1010F0000A94D2F7C82AD92AEA2AFB2A8A8160E010
:101100000E94E235015010408FEF0F3F1807F9F6AB
:10111000898161E00E94E235B601C701DF91CF917C
:101120001F910F91FF90EF90DF90CF90BF90AF9005
:101130009F908F900895CF93DF93EB010E944C080E
:1011400080FF1AC06770707080709070615070403E
:1011500080409040643071058105910508F049C0D8
:10116000FB01EE0FFF1FEE0FFF1FEA5DFD4F6081D9
:1011700071818281938141C032E1969587957795FF
:1011800067953A95D1F775FD0AC07F7180709070B0
:101190000E94953B262F372F482F592F12C060955C
:1011A0007095809590957F71807090700E94953BAE
:1011B00020E030E040E85FE30E94943A9B01AC01FC
:1011C0005058CA01B90120E030E040E85EE30E94D7
:1011D000903CC130D10589F426E636E646EE5FE361
:1011E0000E94903C20E030E040E052E40E94943ABB
:1011F00004C060E070E080E090E0DF91CF9108955E
:101200008F929F92AF92BF92CF92DF92EF92FF9216
:101210000F931F93CF93DF936C01EB01888099802C
:10122000AA80BB80FC01E5A4F6A407A510A9C5010E
:10123000B401A80197010E94473C18166CF0F60112
:10124000E1A4F2A403A514A5C501B401A801970166
:101250000E94F83A87FF04C0E882F9820A831B8360
:10126000DF91CF911F910F91FF90EF90DF90CF9082
:10127000BF90AF909F908F9008953F924F925F9252
:101280006F927F928F929F92AF92BF92CF92DF9296
:10129000EF92FF920F931F93CF93DF93EC018B019B
:1012A0007A01690177FDA4C057FDA2C037FDA0C037
:1012B00029C060E070E0CB01262D352D442D532D43
:1012C0000E94933A6F83788789879A8760E070E0FD
:1012D000CB012E2D312F4F2D582D0E94933A6B8725
:1012E0007C878D879E8760E070E0CB01F501202F21
:1012F0003C2D4F2F5A2D0E94933A6F87788B898B04
:101300009A8B76C07A8369835C834B833E832D837B
:101310006FA178A5882777FD8095982F0E94973B2D
:101320002FE632E143E85AE30E94903CB62EA72E06
:10133000982E792EB801882777FD8095982F0E94E6
:10134000973B20E030E04AE754E40E94FC3A662EE6
:10135000572E482E392E862F952DA42DB32D8F83F1
:101360009887A987BA87B701882777FD8095982F36
:101370000E94973B20E030E04AE754E40E94FC3AA8
:10138000D5012B2F3A2F492D572D0E94903CE62E48
:10139000172FF82E892E862F912FAF2DB82D8B87E2
:1013A0009C87AD87BE87B601882777FD8095982FEB
:1013B0000E94973B20E030E04AE754E40E94FC3A68
:1013C000D5012B2F3A2F492D572D0E94FC3A062F7D
:1013D000C72EB82EA92E9501862F9C2DA32FB22F94
:1013E0008F87988BA98BBA8B8B89813009F461CF59
:1013F000DF91CF911F910F91FF90EF90DF90CF90F1
:10140000BF90AF909F908F907F906F905F904F9024
:101410003F900895CF92DF92EF92FF920F931F9328
:10142000CF93DF93EC016B0116161706ECF5B601AE
:10143000882777FD8095982F0E94973B7B018C0130
:101440006FA178A5882777FD8095982F0E94973BFC
:101450009B01AC01C801B7010E94FC3A162F072F6F
:10146000F82EE92E6B857C858D859E85D801F70148
:101470002B2F3A2F4F2F5E2F0E94903C6B877C873B
:101480008D879E876F85788989899A89D801F70128
:101490002B2F3A2F4F2F5E2F0E94FC3A6F87788BAD
:1014A000898B9A8BD8A6CFA2DF91CF911F910F91F4
:1014B000FF90EF90DF90CF900895AF92BF92CF92C0
:1014C000DF92EF92FF920F931F93CF93DF93EC0184
:1014D0005A016B0178018901CB01BA01A80197017A
:1014E0000E94473C87FF16C0A9A6BAA6CBA6DCA6D9
:1014F000EDA6FEA60FA718AB8A8D813059F46E8930
:101500007F89CE010E940009BE01615E7F4FCE013E
:101510000E940009DF91CF911F910F91FF90EF90F2
:10152000DF90CF90BF90AF9008952F923F924F924F
:101530005F926F927F928F929F92AF92CF92DF9243
:10154000EF92FF920F931F93CF93DF93EC012B0148
:101550003A011901480140E050E0BA0100E010E012
:101560002FE733E40E945D0A88EE93E098A78FA3EB
:101570007F8A6E8A5D8A4C8A398E288ECE01B401AC
:10158000A70196010E943D09AB8A0E94D0342FA189
:1015900038A5442737FD4095542F621B730B840BED
:1015A000950B6B8F7C8F8D8F9E8F1882DF91CF91E3
:1015B0001F910F91FF90EF90DF90CF90AF909F9091
:1015C0008F907F906F905F904F903F902F900895F5
:1015D000FC01A689B7892D913D914D915C91278F92
:1015E00030A341A352A3A489B5892D913D914D917A
:1015F0005C9123A334A345A356A3BC01615E7F4F36
:101600000E94000908950F931F93DF93CF930F92C9
:10161000CDB7DEB78C01FC01828D681729F0C801B7
:1016200069830E94E80A6981F801628F0F90CF9167
:10163000DF911F910F9108951F93CF93DF93EC01DA
:10164000162F8A8D813059F58B89681741F160E03A
:1016500070E0CB012F81388549855A850E94933AE5
:101660006F83788789879A8760E070E0CB012B854C
:101670003C854D855E850E94933A6B877C878D877C
:101680009E8760E070E0CB012F85388949895A89AF
:101690000E94933A6F87788B898B9A8B1B8BDF9193
:1016A000CF911F910895FC01828D0895FC018389DB
:1016B0000895FC011616170614F061E070E028EE9C
:1016C00033E0629FC001639F900D729F900D1124C3
:1016D00067A170A50E94923D64AF653610F084E664
:1016E00084AF0895FC0116AE108281A9828F82A971
:1016F00093A990935603809355030E94971B0895D6
:10170000EF92FF920F931F937A018B01FC01E95B2B
:10171000FF4F2081318142815381CA01B9010E946A
:10172000943AA80197010E94FC3AF62E072F182F31
:10173000E92E20E030E040E85FE30E94473C1816C5
:101740000CF44BC06F2D702F812F9E2D2F2D302F1D
:10175000412F5E2D0E94903C562F472F382F292F66
:1017600060E070E080E89FE3DA01F9012B2F3A2F67
:101770004F2F5E2F0E94933A0E94F73C9B01AC01D1
:101780006F2D702F812F9E2D0E94FC3AF62E072F71
:10179000182FE92E2F2D302F412F5E2D0E94903CC7
:1017A00020E030E040E95EE30E94903C20E030E041
:1017B00040E85FE30E94943A9B01AC016F2D702FCB
:1017C000812F9E2D0E94FC3A9B01AC016BED7FE0C6
:1017D00089E490E40E94933A04C06BED7FE089ECC9
:1017E0009FE31F910F91FF90EF90089520E030E06C
:1017F00040E251E40E94903C20E030E040E05FE3B2
:101800000E94943A0E94643BCB0108957F928F928C
:101810009F92AF92BF92CF92DF92EF92FF920F937F
:101820001F93CF93DF93EC01762E490168018A8DD7
:1018300089AB80915503909156039BAB8AAB7A019B
:10184000EE89FF8960817181828193810E94F60B0C
:101850008C0169A57AA58BA59CA50E94F60B5C015D
:101860006DA57EA58FA598A90E94F60B801B910BF4
:101870000A191B09801791070CF48C01E016F10678
:101880000CF48701B801882777FD8095982F0E9476
:10189000973B20E030E040E251E40E94FC3A6CAB20
:1018A0007DAB8EAB9FAB7DAEB401882777FD809575
:1018B000982F0E94973B20E030E04AE754E40E94D2
:1018C000FC3A68AF79AF8AAF9BAFCE01B6010E94F8
:1018D000590B1A8E81E088831EAEDF91CF911F9144
:1018E0000F91FF90EF90DF90CF90BF90AF909F90BF
:1018F0008F907F90089520E030E04AE754E40E9402
:10190000903C20E030E040E05FE30E94943A0E9487
:10191000643BCB010895CF92DF92EF92FF920F9339
:101920001F93CF93DF93EC01FC01E65BFE4FE08059
:10193000F18002811381C801B7010E947B0CD82E6F
:10194000C92E8093020290930302FE01E25BFE4FD8
:10195000C801B70120813181428153810E94FC3A44
:101960000E947B0C9093050280930402FE01EE5AC4
:10197000FE4FC801B70120813181428153810E940D
:10198000903C0E947B0C90934B0380934A0321E090
:101990002A8F8D2D9C2D97FF23C0909581959F4F69
:1019A00090930302809302028091040290910502B9
:1019B000909581959F4F90930502809304028091AA
:1019C0004A0390914B03909581959F4F90934B03C1
:1019D00080934A038B89882311F42B8B01C01B8AC7
:1019E000609102027091030240910402509105023D
:1019F00020914A0330914B03CE010E943D09CE0154
:101A00000E94720B0E94D21BDF91CF911F910F9108
:101A1000FF90EF90DF90CF900895EF92FF920F9399
:101A20001F93FA019F01442737FD4095542F0E94D0
:101A3000C73D79018A0177FF03C0709561957F4F9B
:101A4000F1E260327F07A4F01216130614061506A1
:101A500044F479018A010894E11CF11C011D111D57
:101A600007C079018A010894E108F1080109110908
:101A7000B701C8011F910F91FF90EF900895FC01ED
:101A8000608171818281938148EE53E00E940D0D47
:101A9000CB0108952F923F924F925F926F927F9267
:101AA0008F929F92AF92BF92CF92DF92EF92FF926E
:101AB0000F931F93DF93CF93CDB7DEB769970FB620
:101AC000F894DEBF0FBECDBF8C01DC015B962D917B
:101AD0003D914D915C915E972B873C874D875E874A
:101AE000DE968C91DE97882309F06AC0F801E15BED
:101AF000FF4F1082F801E75BFE4F1082F801E858B3
:101B0000FF4F1082F801E05BFF4F20833183428357
:101B100053835496ED91FC91559780819181A281D8
:101B2000B381F801FF9680839183A283B383F80188
:101B3000E758FF4F80839183A283B383F801E35872
:101B4000FF4F1182108298012D5B3F4FF801A6894B
:101B5000B7898D919D910D90BC91A02DF901808345
:101B60009183A283B383F80180AD91ADA2ADB3ADF3
:101B7000E95BFF4F80839183A283B383B801655BE8
:101B80007F4FF80124A935A946A957A9FB01208355
:101B9000318342835383F801EA5AFE4F8083918355
:101BA000A283B383D801DD968C91DD97893029F427
:101BB00081E0DE968C93DE9703C084E0F80186AF67
:101BC000D8015496ED91FC91559720813181428145
:101BD00053812D833E834F835887DE968C91DE9709
:101BE0008430F1F4DF96F801E95BFF4F6D917D9150
:101BF0008D919C9120813181428153810E94943A40
:101C00009B01AC016D817E818F8198850E94473C4C
:101C100018169CF588E0D801DE968C93DE971EC0DE
:101C2000883059F5D801DF96F801E95BFF4F6D91D7
:101C30007D918D919C9120813181428153810E94BF
:101C4000933A9B01AC016D817E818F8198850E94C2
:101C5000F83A87FF12C084E0F80186AFF801E95B2B
:101C6000FF4FD801AA5ABE4F8D919D910D90BC9106
:101C7000A02D80839183A283B383D801DE968C91BB
:101C8000DE97982F9670A1F05696ED90FC9057979E
:101C9000AD5BBF4FF801E55BFF4F6D917D918D917D
:101CA0009C9120813181428153810E94943A16C0D7
:101CB0008830C9F4D8015696ED90FC905797AD5BEB
:101CC000BF4FF801E55BFF4F6D917D918D919C9128
:101CD00020813181428153810E94933AF7016083D0
:101CE000718382839383F801E75BFE4F80818F5F6E
:101CF0008083D801DC969C91DC97E92EFF2498170D
:101D0000F0F0E81AF108EE0CFF1CE00EF11EEFE710
:101D1000F0E0EE0EFF1EF801E758FF4F6D817E8167
:101D20008F81988520813181428153810E94933A2D
:101D30000E947B0CD70111969C938E93B1C4908323
:101D4000D801A158BF4FAD90BC901197A701440F87
:101D5000551FFA01E158FF4FE00FF11F6501F094A4
:101D6000E194F108F394EE0CFF1CB80163587F4F27
:101D70004D011AC03297CF018E0D9F1D840F951F04
:101D8000DC018D919C911197A816B9060CF45C01A9
:101D90008C159D050CF46C01DB012D913C91119784
:101DA000821B930B93838283E815F90519F7F801D9
:101DB000E758FF4F20803180428053806D817E81C3
:101DC0008F819885A20191010E94933A0E947B0C19
:101DD0007C01F801E358FF4F60807180F801E15801
:101DE000FF4F8619970991838083EC14FD043CF022
:101DF00099249394EC14FD0421F0992402C09924B1
:101E00009394B301882777FD8095982F0E94973B84
:101E100020E030E04AE754E40E94FC3A9B01AC0128
:101E2000C201B1010E94943A562E272E482E392E17
:101E3000F801E758FF4FFA87E987862F922DA42DE6
:101E4000B32D80839183A283B383B6016A0D7B1D7A
:101E5000882777FD8095982F24EF31E040E050E00F
:101E60000E94733D69837A838B839C83CE010196A4
:101E70000E943F0D9C01261937093901F801E358EA
:101E8000FF4F31832083D801DE968C90DE97882D1A
:101E900090E083709070009709F49DC0AC18BD0865
:101EA000B501882777FD8095982F0E94973B20E009
:101EB00030E04AE754E40E94FC3A6B017C01F801EF
:101EC000E95BFF4F2081318142815381CA01B90111
:101ED0000E94943A9B01AC01C701B6010E94F83AF6
:101EE00018160CF4DDC3B301882777FD8095982F71
:101EF00024E6E22EF12CE00EF11EB82DB13079F57A
:101F000022E0F80126AF0E94973B20E030E04AE74C
:101F100054E40E94FC3A9B01AC01652D722D842D86
:101F2000932D0E94943A262F372F482F592FD701EF
:101F30002D933D934D935C931397F801E75BFE4F10
:101F40001082472F382F292F862F942FA32FB22F9F
:101F5000E985FA8580839183A283B383A1C30E941C
:101F6000973B20E030E04AE754E40E94FC3A9B01B2
:101F7000AC01652D722D842D932D0E94943AD701CA
:101F80002D913D914D915C910E94933AF801E55B52
:101F9000FF4F20813181428153810E94FC3AF80138
:101FA000E65AFE4F9B01482F592F208331834283ED
:101FB00053832FEF36EE4BED5EE20E94F83A87FF37
:101FC00004C080E8F80186AF6BC388E0D801DE96D4
:101FD0008C93DE9765C341E0EA14FB042CF440E0E7
:101FE000992009F494C10DC0F801E15BFF4F51E065
:101FF0008081813009F050E0F801E15BFF4F82E021
:102000000CC0F801E15BFF4F51E08081823009F0A4
:1020100050E0F801E15BFF4F81E08083552309F434
:1020200041C0F801E858FF4F60816F5F6083653001
:10203000B8F164E035C0262F30E0F9017496EE0F58
:10204000FF1FEE0FFF1FE00FF11FD9015396AA0FDC
:10205000BB1FAA0FBB1FA00FB11F8D919D910D90AB
:10206000BC91A02D80839183A283B383F9017996DB
:10207000EE0FFF1FEE0FFF1FE00FF11FD901589663
:10208000AA0FBB1FAA0FBB1FA00FB11F8D919D915F
:102090000D90BC91A02D80839183A283B383615066
:1020A000662349F6442311F49920B1F0F801E05B6E
:1020B000FF4F8B859C85AD85BE8580839183A283F0
:1020C000B383F801EC59FF4F8D819E81AF81B885B4
:1020D00080839183A283B383552309F418C1F80147
:1020E000E858FF4F8081853008F411C1F801E859A4
:1020F000FF4F3080218092819D83A381A9873F86F5
:10210000288A998BAA8B32E0532E44241C8A1E8A7B
:102110001F8A198F088F8F01F801E480F580D6801F
:10212000C7800C5F1F4F96016E2D7F2D832F922F3E
:1021300020813181428153810E94933A862E972ECD
:10214000A82EB92E20E030E0A9010E94473C1816C5
:1021500024F0B7FAB094B7F8B0944C893E892F892F
:10216000642D742F832F922FA50194010E94943A1D
:10217000962E872E782E692E462E7C8B8E8B9F8BEB
:10218000A1013D812985652F722D832F922FAD2DC1
:10219000BC2D2E2D3F2DAD010E94F83A87FF04C0C3
:1021A0003E2C2F2CDD82C9865F85488939892A8992
:1021B000652F742F832F922FAD2DBC2D2E2D3F2DEB
:1021C000AD010E94473C181624F4EF86F88AD98A9C
:1021D000CA8A5394B52DB53009F09ECF088D198D5C
:1021E000A4019301652F782D832F962D20E030E0F8
:1021F00040EC50E40E94FC3AC62EE72EA82EF92EA1
:10220000662E772E582E492EF80185AD893009F0BB
:102210004FC0C8014C2D5E2D6A2D7F2D0E94800B72
:102220002EE136E341E150E40E94933AD62EB72ED8
:10223000982E892E9401832F922F20E030E0A9015F
:102240000E94473C181674F494016D2D7B2D832F4A
:10225000922F22E93AE046E85EE30E94473C1816D6
:1022600074F026C094016D2D7B2D832F922F22E9CF
:102270003AE046E85EEB0E94F83A87FF19C00A5A36
:102280001E4F6C2D7E2D8A2D9F2D20E030E040E0EA
:102290005FE30E94903C23EF34E045E35FE30E945C
:1022A000903CD8016D937D938D939C931397F8C1C7
:1022B000A1013D812985652F722D832F922FBF8526
:1022C000A889F989EA892B2F3A2F4F2F5E2F0E9478
:1022D000933A20E030E040E05FE30E94903C2C2DF8
:1022E0003E2D4A2D5F2D0E94933A2C2D3E2D4A2DD6
:1022F0005F2D0E94FC3A2DEC3CEC4CE45DE30E9427
:10230000F83A87FF08C080E1F80186AF04C0662470
:10231000772455244424F801E05BFF4F80819181AC
:10232000A281B3812B853C854D855E85281B390BA9
:102330004A0B5B0BDA01C901813E33E9930734E0B4
:10234000A30730E0B30730F4F801E858FF4F80816D
:10235000843128F080E8D801DE968C93DE97F8016E
:1023600086AD807909F49CC10688F789E02DD801F3
:10237000AD5BBF4F8D919D910D90BC91A02D808341
:102380009183A283B383D801DE968C91DE97803847
:1023900009F488C1F801E55BFF4F6081718182819A
:1023A0009381F201262D372D4F2F542D0E94FC3A98
:1023B00023E839EF42EA5FE30E94903C862E372EF5
:1023C000282E9D83D801A85ABF4FF801EC5AFF4F21
:1023D0006D917D918D919C912081318142815381BC
:1023E000620F731F841F951FF801E05AFF4F208171
:1023F000318142815381621B730B840B950BF80171
:10240000E45AFF4F2081318142815381621B730B5B
:10241000840B950B0E94953B20E030E04AEF54E49A
:102420000E94FC3A69877B878F87988BF80185AD7E
:102430009801265B3E4F3B8B2A8BA801425B5E4F87
:102440005D8B4C8B893009F0B5C060E070E080E8AE
:102450009FE3ED81282D332D422D5E2F0E94FC3A03
:10246000F801E65AFE4F20813181428153810E945A
:10247000FC3AB62EA72E982E998BC8019201462DB4
:10248000572D632F742D0E94800B6B017C012FE16F
:1024900035E84BE65FE30E94903C9B01AC0160E0B5
:1024A00070E080E290E40E94933A2B013C01C70166
:1024B000B6012CEE31E540E850E40E94903C9B01CF
:1024C000AC0160E070E08CE291E40E94933AD501A7
:1024D000E9892B2F3A2F492D5E2F0E94903C20E056
:1024E00030E040E85FE30E94943A9B01AC01C301F5
:1024F000B2010E94FC3AED81282D332D422D5E2F32
:102500000E94903CAA89BB896D937D938D939C9387
:102510001397C701B60126EF38E24CE550E40E945C
:10252000903C23E333E343EC50E40E94933AD5011B
:10253000E9892B2F3A2F492D5E2F0E94903C20E0F5
:1025400030E040E85FE30E94943A9B01AC010E94B6
:10255000903CB62EA72E982E892EC701B60126EFE5
:1025600038E24CED5FE30E94903C23E333E343E425
:1025700050E40E94933AD501F4012B2F3A2F4F2FAC
:102580005E2F0E94FC3AB985AB85FF85E8892B2F29
:102590003A2F4F2F5E2F0E94903CEC89FD8960837B
:1025A000718382839383F801EE5AFE4F80E090E0BE
:1025B000DC0171C090E07C01EE0CFF1CE80EF91EFE
:1025C000F701E651FE4F649170E080E090E00E94D8
:1025D000953B2DEC3CEC4CE45DE30E94903C9B0170
:1025E000AC01ED81682D732D822D9E2F0E94FC3A47
:1025F000AA89BB896D937D938D939C931397F70163
:10260000E551FE4F649170E080E090E00E94953BC0
:102610002DEC3CEC4CE45DE30E94903C9B01AC0152
:10262000B985AB85FF85E8896B2F7A2F8F2F9E2F79
:102630000E94FC3AEC89FD896083718382839383D5
:10264000F701E451FE4F64916623C1F070E080E031
:1026500090E00E94953B2DEC3CEC4CE45DE30E9445
:10266000903C9B01AC01B985AB85FF85E8896B2F58
:102670007A2F8F2F9E2F0E94FC3A04C060E070E0FA
:1026800080E090E0F801EE5AFE4F382F292F862F78
:10269000972FA32FB22F80839183A283B38302C08D
:1026A00080E001C081E069960FB6F894DEBF0FBEEE
:1026B000CDBFCF91DF911F910F91FF90EF90DF90F1
:1026C000CF90BF90AF909F908F907F906F905F90D2
:1026D0004F903F902F9008958F929F92AF92BF920C
:1026E000CF92DF92EF92FF920F931F93DF93CF93DE
:1026F00000D000D0CDB7DEB78C010E94D034D80115
:102700005B962D913D914D915C915E976B017C01A3
:10271000C21AD30AE40AF50A97962D913C9198972C
:10272000442737FD4095542FC216D306E406F5061C
:1027300008F4A0C0F801638F748F858F968F808115
:10274000882361F0C8010E944A0D882309F492C0D1
:10275000D8011C92C8010E948B0C8CC0F801828D9C
:10276000882309F487C00488F589E02DC080D180D2
:10277000E280F380D8015896ED91FC9159976081E1
:10278000718182819381A70196010E94933AB62EAE
:10279000A72E982E892EA5019401652F742F832FC3
:1027A000922FF80123853485458556850E94903CFB
:1027B0009B01AC01D8015F966D917D918D919C91AB
:1027C00092970E94943AF801678F70A381A392A315
:1027D000B801615E7F4FC8010E940009A501940104
:1027E000652F742F832F922FD80117962D913D912D
:1027F0004D915C911A970E94903CF801278D30A171
:1028000041A152A10E94943A4B015C01C701B6015B
:10281000D80193962D913D914D915C9196970E9490
:10282000933AF80127853089418952890E94903C6A
:102830009B01AC01C501B4010E94933A69837A837C
:102840008B839C83C801BE016F5F7F4F0E9400098C
:10285000D8015696ED91FC91579789819A81AB8169
:10286000BC8180839183A283B383F801C3A2D4A2E5
:10287000E5A2F6A20F900F900F900F90CF91DF91ED
:102880001F910F91FF90EF90DF90CF90BF90AF908E
:102890009F908F900895FF920F931F93CF93DF9394
:1028A000FC011081C181D281F8948981012F0095AA
:1028B0008023898378948DE7F82EFA9431F182E0B1
:1028C00090E00E942B3588818123B9F3F8948A81A6
:1028D00080238A838981812B8983789480EE91E09B
:1028E0000E942B35F89489818023898386E490E0C7
:1028F0000E942B358881812311E009F010E0789443
:102900008AE991E00E942B3501C010E0812FDF9110
:10291000CF911F910F91FF9008951F93CF93DF9355
:10292000FC011081C181D281912F909560FF12C06E
:10293000F8948A8189238A838981812B89838AE01B
:1029400090E00E942B358A81812B8A83789487E3DB
:1029500090E011C0F8948A8189238A838981812B30
:10296000898381E490E00E942B358A81812B8A83C0
:10297000789485E090E00E942B35DF91CF911F91F4
:1029800008950F931F93CF93DF93FC011081C181B2
:10299000D281F8948981812B89838A81012F0095C6
:1029A00080238A8383E090E00E942B3589818023F5
:1029B00089838AE090E00E942B350881789485E332
:1029C00090E00E942B35102381E009F480E0DF9134
:1029D000CF911F910F910895CF92DF92EF92FF92C6
:1029E0000F931F93DF93CF930F92CDB7DEB76C0198
:1029F000F62E08E010E0EE24E3948E2D8F2161E0A6
:102A000009F460E0C60149830E948D14EE0C015068
:102A1000104049810115110581F74423A9F4F89468
:102A2000D6011196ED91FC91129781819C91909520
:102A3000892381831196ED91FC91129782819C915B
:102A400090958923828378940F90CF91DF911F9185
:102A50000F91FF90EF90DF90CF900895EF92FF924B
:102A60000F931F93CF93DF938C01C8E0D0E0FF2436
:102A7000EE24E394C8010E94C1148111FE28EE0CDB
:102A80002197C1F78F2DDF91CF911F910F91FF906B
:102A9000EF900895CF92DF92EF92FF920F931F93E2
:102AA000DF93CF930F92CDB7DEB78C01F62E65E59D
:102AB00040E079830E94EC1479814F2D572F6A01F1
:102AC00098E0F92EF60161916F01C80140E00E9483
:102AD000EC14FA94B9F70F90CF91DF911F910F91F9
:102AE000FF90EF90DF90CF9008956CEC40E00E9453
:102AF000EC140895FC01138615861486128611863F
:102B000010861782168215821482138208951F93ED
:102B1000CF93DF93EC01162F862F60E00E949D3546
:102B2000612F70E0FB01EB50FA4FE491E883FB0169
:102B3000EF51FA4FE491F0E0EE0FFF1FE952FA4F28
:102B40008591949189839A83CE010E947A15DF91B1
:102B5000CF911F910895BF92CF92DF92EF92FF9293
:102B60000F931F93CF93DF93EC01162F072F8D85C3
:102B7000882309F05DC0CE010E944B14882321F404
:102B80001B861D861C8665C0CE0160EF40E00E945A
:102B9000EC14EE24E394DD24CC24FF24F394CE0142
:102BA0000E94C114B82ECE010E94C1149B2D9130F9
:102BB00019F48130B1F433C0B816D9F48B85F81606
:102BC00038F4FE01ED0DF11D83818E2151F402C018
:102BD000F81639F060E08F2D893008F044C0FC868B
:102BE00042C0FE01ED0DF11D83818E29838361E0DA
:102BF00009C06B2DFE01ED0DF11D9E2D9095838179
:102C000089238383CE010E948D14F394EE0C19F472
:102C1000D394EE24E3949D2D983008F4C0CF8F2DEB
:102C2000813430F0CB86CC2001F581E08D871DC04A
:102C30001B861D861C8680E02396212F302FF901EC
:102C400020E030E0999191932F5F3F4F283031057C
:102C5000C9F7DF91CF911F910F91FF90EF90DF9017
:102C6000CF90BF900895CF2CC5CF8B81882301F3DF
:102C700081E0E2CFDC0180E007C0ED91E827F0E0E1
:102C8000EB5FFD4F849161506623B9F70895CF92B1
:102C9000DF92EF92FF920F931F93CF93DF93FC018C
:102CA0009B01442321F055E0E52EE41A02C0EE24F6
:102CB000EA94B90137FF04C066277727621B730BBC
:102CC000168245E0F42E0AE010E0CE2DD0E02197E8
:102CD00090E3D92E8EE2C82EFE1429F4DF01AF0D49
:102CE000B11DCC9223C061157105B9F44F2D50E090
:102CF0004C175D072CF04E0F5F1FDA01DC920DC000
:102D000037FF06C04E0F5F1F8DE2FA01808310C0AF
:102D10004F5F5F4F4E0F5F1F0BC0CB01B8010E948A
:102D2000923DDF01AF0DB11D805D8C93FA94D4CF3D
:102D3000CA01DF91CF911F910F91FF90EF90DF902B
:102D4000CF9008958F929F92AF92BF92CF92DF92D1
:102D5000EF92FF920F931F93CF93DF93EC016B01E0
:102D60005A0188818D3221F42196EE24E39401C02A
:102D7000EE2410E0FF2460E070E0CB014E013C2F18
:102D8000292D09910E3221F4112331F411E0F6CFEF
:102D9000402F40534A30F8F0EE2039F0909580955E
:102DA000709561957F4F8F4F9F4FF60160837183C0
:102DB00082839383F501F082832F922FDF91CF914D
:102DC0001F910F91FF90EF90DF90CF90BF90AF9049
:102DD0009F908F9008952AE030E040E050E00E94FC
:102DE000733D202F332727FD309520533040442753
:102DF00037FD4095542F620F731F841F951F1123B9
:102E000009F4BCCFF394BACF90E0FC01EE0FFF1FA2
:102E1000E80FF91FEE0FFF1FE85FFC4FE491E6FD9E
:102E200009C0E7FF09C08CE593E00E94530B91E0D5
:102E3000813019F490E001C091E0892F0895982F16
:102E400020915C038A3058F081E08227943140F46D
:102E5000882331F0892F8A500E940417089581E059
:102E60000895CF92DF92EF92FF920F931F93DF931B
:102E7000CF930F92CDB7DEB792E8899FC00111249E
:102E80008C0106531F4FE9EDCE2ED12CC80ED91E52
:102E90007E010894E11CF11CC801B7010E94BF0724
:102EA0006981662309F460E289EA92E00E94C636ED
:102EB0000F5F1F4F0C151D0579F70F90CF91DF9114
:102EC0001F910F91FF90EF90DF90CF9008950F9397
:102ED0001F93DF93CF9300D0CDB7DEB71A8219824C
:102EE0008E010F5F1F4F80E090E0B8010E94F50750
:102EF00088EC90E0B8010E94F5078AE491E0B801FF
:102F00000E94F5078CEC91E0B8010E94F5070F9044
:102F10000F90CF91DF911F910F9108954F925F9283
:102F20006F927F928F929F92BF92CF92DF92EF9299
:102F3000FF920F931F93DF93CF93CDB7DEB7279701
:102F40000FB6F894DEBF0FBECDBF92E8899F600137
:102F5000112488EC90E0C80ED91E00E8B02E66243B
:102F60006A94762C12E0412E512C4C0C5D1CB4E07E
:102F7000EB2EF12CEC0EFD1E4E010894811C911CD1
:102F800001C0BB247D826C825F824E8200E010E033
:102F9000B8016A537D4FC7010E9425070F5F1F4F7D
:102FA00000311105A9F707ED12E0F80181918F01B9
:102FB0008B298983C701B4010E942507F2E0073EEF
:102FC0001F0799F700E010E0B801660F771F660F42
:102FD000771F69517D4FC7010E9487070F5F1F4F01
:102FE0000031110589F700E010E0B801660F771F86
:102FF000695D7C4FC7010E944F070F5F1F4F003173
:10300000110599F78C819D819B838A832FEF8F3FD8
:10301000920719F4BB2009F0B4CFC601BE016E5F60
:103020007F4F0E94F50727960FB6F894DEBF0FBEBC
:10303000CDBFCF91DF911F910F91FF90EF90DF9067
:10304000CF90BF909F908F907F906F905F904F90A8
:103050000895AF92BF92CF92DF92EF92FF920F93BB
:103060001F93CF93DF937A015901680192E8899FFA
:10307000E0011124C853DF4F062F10E0C80142962B
:103080008C0F9D1FBA010E94BF07F70180818F77C7
:103090008083C801880F991F880F991F82968C0F13
:1030A0009D1FB5010E94DD07C801880F991F8E5929
:1030B0009F4F8C0F9D1FB6010E94C807DF91CF91D3
:1030C0001F910F91FF90EF90DF90CF90BF90AF9046
:1030D000089589EA92E060E040E00E946933089533
:1030E00089EA92E060E041E00E946933089510921D
:1030F000120589EA92E00E94583308951F936623CF
:1031000021F489EA92E060E22FC00E941F17182F75
:10311000809112058823B9F01123A9F40E94D034BC
:1031200020910E0530910F05409110055091110529
:1031300028513C4F4F4F5F4F261737074807590715
:1031400010F40E94771880911205882331F0112322
:1031500011F06EE707C068E505C0112311F06EE3BA
:1031600001C06CE789EA92E00E94C6361F9108957B
:103170001F93182F81E080931205143108F486E024
:1031800080930D050E94D03460930E0570930F0557
:103190008093100590931105812F0E941F1788239B
:1031A00021F089EA92E00E944F331F910895EF9237
:1031B000FF920F931F93CF93DF93EC017B010FEFEF
:1031C0001FEF1BC0CE010E94113E0827802F829561
:1031D0008027082E869586958025082E8695802541
:1031E0008770002E012F869507948795102D08274C
:1031F000069487951025082721960894E108F10880
:103200008FEFE8168FEFF806E9F6C801DF91CF914E
:103210001F910F91FF90EF90089582E10E94443634
:1032200023E0883E92078CF48F3691058CF041E0C4
:103230008731940784F021E0843F92077CF021E0FD
:1032400030E042E0833D94075CF020E030E008C0CD
:1032500024E030E005C023E030E002C022E030E0AE
:10326000C90108950F931F93CF93DF93FC017089D9
:10327000703139F167FD25C0862F90E08F73907013
:1032800085309105F4F4A72FB0E0EF01CA0FDB1FE2
:10329000698BED01CC0FDD1FCC0FDD1FCE0FDF1FC3
:1032A00029A33AA34BA35CA3AA0FBB1FAE0FBF1F5A
:1032B000AF59BF4F11961C930E937F5F708B81E0C7
:1032C00001C080E0DF91CF911F910F910895EF929F
:1032D000FF92CF93DF93EC01188A65E873E00E94B8
:1032E000FC3D9E012F5E3F4FC9016FE770E040E15A
:1032F00050E00E94033E9E012F5D3F4FC9016FEFDA
:103300007FEF40E450E00E94033ECF59DF4FCE01F3
:103310006FEF7FEF40E250E00E94033EDF91CF91DC
:10332000FF90EF900895CF92DF92EF92FF920F936C
:103330001F93DF93CF930F92CDB7DEB78C016B0154
:103340008FEF89837E010894E11CF11C04C0C80141
:10335000B7010E942507F801828193818C159D0594
:10336000B4F30F90CF91DF911F910F91FF90EF90E9
:10337000DF90CF900895EF92FF920F931F93CF931A
:10338000DF93EC01882777FD8095982F0E94973B6B
:103390009B01AC0160E070E080E894E40E94FC3A9C
:1033A00020E030E040E85FE30E94933A9B01AC01EB
:1033B000698D7A8D8B8D9C8D0E94FC3A2D853E8582
:1033C0004F8558890E94FC3A0E94503C29893A89CD
:1033D0004B895C890E94FC3A8B01F82EE92E6D899D
:1033E0007E898F89988D23E333E948E853E40E946E
:1033F000943A9B01AC0160E070E080E89FE30E949A
:10340000FC3A9B01AC01F701602F712F8F2F9E2F8B
:103410000E94943A562F472F382F292F60E070E0F2
:1034200080E89FE3DA01F9012B2F3A2F4F2F5E2F0F
:103430000E94FC3A23E333E948E853E40E94933ABC
:10344000DF91CF911F910F91FF90EF9008950F930F
:103450001F93CF93DF93EC0118828C01035E1F4F03
:10346000C8016EE00E948715CE018B96B8010E94BC
:103470006B03CE018A5B9F4F60E14FE02EE00E941C
:103480002F08FE01E75BFF4F108280E090E0A0E292
:10349000B1E48D879E87AF87B88B20E030E040E8AD
:1034A0005FE3298B3A8B4B8B5C8B23E333E942E957
:1034B00053E42D8B3E8B4F8B588F898F9A8FAB8F18
:1034C000BC8FDF91CF911F910F910895EF92FF92E2
:1034D0000F931F93CF93DF938C01FC01E75BFF4FAA
:1034E00080818130F1F47BE2E72EF12CE00EF11EB9
:1034F000C7010E941305E801EE96C701BE0140E036
:103500000E948903882319F4F801108213C0C701AF
:10351000BE014CE00E949A04C70160E00E947D0554
:1035200006C0882321F48EE060E00E949D3581E092
:10353000F8018083DF91CF911F910F91FF90EF9061
:103540000895EF92FF920F931F93CF93DF938C0117
:103550007B01C0E0D0E0BE01660F771F660F771FCA
:103560006F5F7F4F600F711FC7010E948707219611
:10357000C730D10581F7DF91CF911F910F91FF9057
:10358000EF900895FC01E75BFF4F2081213041F46B
:103590008B960E94F2052EEE32E040E050E004C02F
:1035A00024E630E040E050E0B901CA010895CF932D
:1035B000DF93EC01FC01E75BFF4F8081813069F014
:1035C000813018F08230A9F50EC08EE00E9444369A
:1035D000BC01CE010E94BB190EC0CE018B9660E0EB
:1035E0000E94E40608C0CE018A5B9F4F60E070E055
:1035F0000E949B081EC026E636E646EE5FE30E9468
:10360000903C20E030E040E052E40E94943AFE0119
:10361000E75BFF4FE081F0E0EE0FFF1FEE0FFF1FB3
:10362000EC0FFD1F21813281438154810E94943A25
:1036300004C060E070E080EC9FE7DF91CF910895D7
:103640001F920F920FB60F9211242F938F939F9377
:10365000AF93BF93EF93FF93E4EFF5E0E491F0E0D5
:10366000EE0FFF1FE353FA4F85919491DC01E8E0E0
:10367000F6E0E4918091CA049091CB04009729F47C
:103680008C91E0958E238C9326C08091CA049091F2
:10369000CB04807F9370009719F48C918E2703C020
:1036A0008C91E0958E238C938091CA049091CB04E9
:1036B00001979093CB048093CA048091CA0490919F
:1036C000CB0428EF8F3F920731F48FEF9CEF90935C
:1036D000CB048093CA04FF91EF91BF91AF919F916A
:1036E0008F912F910F900FBE0F901F9018950E94F1
:1036F000D0346093BE047093BF048093C004909351
:10370000C1040895DC01CB012091BE043091BF04B7
:103710004091C0045091C104821B930BA40BB50BC4
:103720008827B7FD83959927AA27BB27089560911D
:10373000550370915603882777FD8095982F0E9436
:10374000973B20E030E040E251E40E94FC3A609375
:10375000510370935203809353039093540308953D
:10376000E0914C03F0E0EE0FFF1FEA5FFD4F608138
:1037700071817093170260931602882777FD8095F8
:10378000982F0E94973B20E030E040E251E40E94F5
:10379000FC3A60934D0370934E0380934F039093D4
:1037A0005003089581E08093D3048091BE049091EA
:1037B000BF04A091C004B091C10488579C4EAF4F84
:1037C000BF4F8093D4049093D504A093D604B093B4
:1037D000D7040895DF92EF92FF920F931F93DF9328
:1037E000CF93CDB7DEB729970FB6F894DEBF0FBEE3
:1037F000CDBF8FEF9FEF9F838E8382E090E099870C
:10380000888719828CE593E00E94530B817099811F
:103810009E7F982B99838CE593E00E94560B8170D4
:10382000880F9981917F209120022370220F220F0F
:10383000982B922B20914C0323702295207F9F7808
:103840008091590381708295880F880F807C922B1C
:10385000982B80915B038795882787959F77982B76
:1038600099838E010A5F1F4FC801BE016F5F7F4FB2
:103870000E9425078091470383709091A102937065
:10388000990F990F892B80618A83C801BE016E5FF1
:103890007F4F0E942507C80162E072E00E944F0737
:1038A000C80164E072E00E944F07C8016AE473E057
:1038B0000E944F07EE24FF24D02E012FB701660F80
:1038C000771F6A5F7D4F8D2D902F0E944F070894C0
:1038D000E11CF11C84E0E816F10481F78D2D902F96
:1038E00062E272E00E9425078D2D902F6AEB74E052
:1038F0000E944F078D2D902F6CEB74E00E944F07B4
:103900008D2D902F63E272E00E944F078D2D902F36
:1039100065E573E00E944F078D2D902F6CE172E0FA
:103920000E944F078D2D902F6EE172E00E944F078D
:1039300082E08B838D2D902FBE016D5F7F4F0E94A3
:1039400025078D2D902F68E470E00E94931988E57B
:1039500092E06D2D702F0E94A11A8D2D902F68EA94
:1039600070E00E9493198D2D902F62EA72E00E9400
:103970004F078D2D902F68EC70E00E9493198E8177
:103980009F819D838C8380E090E0BE016C5F7F4FC0
:103990000E94F50729960FB6F894DEBF0FBECDBF83
:1039A000CF91DF911F910F91FF90EF90DF900895DD
:1039B0000F931F93DF93CF9300D00F92CDB7DEB755
:1039C00082E090E066EC70E00E94D7188C0180E005
:1039D00090E0BE016E5F7F4F0E94C8078A819B8185
:1039E0000817190759F48FE190E0BE016F5F7F4F10
:1039F0000E94BF0781E09981923009F080E00F902A
:103A00000F900F90CF91DF911F910F9108956F92BA
:103A10007F928F929F92AF92BF92CF92DF92EF925E
:103A2000FF920F931F93DF93CF93CDB7DEB7289705
:103A30000FB6F894DEBF0FBECDBF0EE412E073E008
:103A4000A72EB12CAC0EBD1E67E0C62ED12CCC0E1D
:103A5000DD1E88248A94982C55E0652E712C6C0EFE
:103A60007D1EC801B5010E94C807EB80FC808FEF66
:103A7000E8168FEFF806F1F188EC90E0B6010E94AD
:103A8000C8078F819885E816F906D9F08AE491E095
:103A9000B6010E94C8078F819885E816F90699F04B
:103AA0008CEC91E0B6010E94C8078F819885E816DA
:103AB000F90659F09E828D82C801B3010E94F50774
:103AC00019C080E003C081E001C082E08093470319
:103AD000C8010296BE016F5F7F4F0E94C8078981AF
:103AE0009A810097A9F00E943B038150809348037C
:103AF00081E00FC00C5F1F4F809109058F5F80939D
:103B0000090582E00E3C180709F0ABCF10920905B9
:103B100080E028960FB6F894DEBF0FBECDBFCF91E0
:103B2000DF911F910F91FF90EF90DF90CF90BF90AA
:103B3000AF909F908F907F906F900895CF92DF927B
:103B4000EF92FF920F931F93DF93CF9300D000D09B
:103B5000CDB7DEB7C0900905DD2486010F5F1F4F8A
:103B60000F711070009309058FEF9FEF9C838B837B
:103B7000000F111F000F111F025B1D4F7E010894E3
:103B8000E11CF11C9091470382E8989FC001112429
:103B900088539F4FB7010E94C807C801B7010E9410
:103BA0001808F3E0EF2EF12CEC0EFD1EC801029672
:103BB000B7010E94F507C601880F991F880F991F4A
:103BC000825B9D4FB7010E94F5070F900F900F90F9
:103BD0000F90CF91DF911F910F91FF90EF90DF90A9
:103BE000CF900895DF93CF9300D0CDB7DEB720916B
:103BF000090530E02C563F4F90E001964FEF5FEF04
:103C000002C0440F551F8A95E2F75A834983C901C0
:103C1000880F991F880F991FBE016F5F7F4F0E9409
:103C200018080F900F90CF91DF9108958FE00E94B8
:103C3000F21D08951092CB041092CA040E94161E21
:103C4000109249030895FC01329685919491860F54
:103C5000911DFC0184910895FC013396E491E0FDEF
:103C600004C0E1FF04C083E0089582E0089581E08C
:103C70000895FC013396E491F0E0E4FD0AC0CF0121
:103C80008C709070009741F4E5FF09C029E13CEF8A
:103C900008C02AE030E005C020E030E002C021EF9B
:103CA00038EDC9010895FC013396E491F0E0E5FD9B
:103CB00009C0E2FD0AC0E871F070309749F02FEFBB
:103CC0003FE708C027EE33E005C028EE33E002C02E
:103CD0002FE037E2C9010895FC013496A591B49113
:103CE0008C9111969C9111970895EF92FF920F93EA
:103CF0001F93CF93DF938C01FC01349685919491AF
:103D0000E82EE7017E01F92EE701C8010E94531E4B
:103D1000288139818217930714F499838883C80115
:103D20000E94391E288139812817390714F4998394
:103D30008883DF91CF911F910F91FF90EF900895AD
:103D400021E030E00BC0A901440F551F93E0220F82
:103D5000331F9A95E1F7240F351F8150882399F777
:103D6000C9010895EF92FF920F931F93CF93DF93B2
:103D70007B018C01421760F4822F841B0E94A01EDD
:103D80008E9D90018F9D300D9E9D300D112427C07A
:103D9000241720F5842F821B0E94A01EEC019C0199
:103DA000442737FD4095542FC801B7010E94C73DF5
:103DB000FB0177FF03C0F095E195FF4FCE0162E074
:103DC00070E00E94923DE617F7074CF017FF03C022
:103DD0002150304004C02F5F3F4F01C09B01C901FB
:103DE000DF91CF911F910F91FF90EF90089523E005
:103DF0000E94B21E0895CF93DF93EC01CB01BA016C
:103E0000422F0E94F71E97FF04C080E0DF91CF9100
:103E100008959983888381E0F9CF21E00E94B21E42
:103E20000895CF93DF93EC01CB01BA01422F0E949A
:103E30000D1F9C0187E22031380724F488ED213FD3
:103E4000380724F480E0DF91CF91089539832883E7
:103E500081E0F9CF1F93182F06C089EA92E060E253
:103E60000E94C63611501123C1F71F9108951F9368
:103E7000CF93DF93EC0110E1FE012196649166235C
:103E800041F0112331F089EA92E00E94C6361150C8
:103E9000F3CF812F0E942A1FDF91CF911F910895A8
:103EA000BF92CF92DF92EF92FF920F931F93DF9317
:103EB000CF93CDB7DEB72B970FB6F894DEBF0FBE0A
:103EC000CDBF282F062FB42E89EA92E060E0422F62
:103ED0000E9469338B2D602F0E947E180B2D0A5093
:103EE0000A3008F0A6C0CE01019660E270E04BE017
:103EF00050E00E94033E802F90E08C01000F111FC4
:103F0000080F191F000F111FE5E0EE2EE3E0FE2E53
:103F1000E00EF11EC7010E946C1E6C01C7010E94D9
:103F20002C1E482FF701E490E982F801EA5FFC4F6C
:103F3000E491EA83095F1C4FF80104910B8380919F
:103F40005A03882391F0FB2DFA3079F48091BE0456
:103F50009091BF04A091C004B091C10492FF1DC014
:103F6000CE0106966EE775E016C081EEC81681EBAD
:103F7000D806E1F4EB2DEB30C9F48091BE049091AA
:103F8000BF04A091C004B091C10492FF06C0CE014D
:103F900008966AE775E00E94FC3D8E010F5F1F4F97
:103FA0007BE0E72EF12CEC0EFD1E06C0CE0105963F
:103FB000B6010E944716F1CFF80161918F01662387
:103FC00009F460E289EA92E00E94C6360E151F05E8
:103FD00099F7FB2DF03199F0F13138F4FB3079F09D
:103FE000FC30E9F0FA3009F506C08B2D813179F00B
:103FF0008431D8F404C080915A038823B1F489EA4B
:1040000092E066E775E00E94A03682E00FC089EA80
:1040100092E063E775E00E94A03683E007C089EA7A
:1040200092E060E775E00E94A03685E00E942A1FBA
:1040300083C08B2D90E001978732910508F07CC0FA
:104040008C5C9F4FFC01EE0FFF1F0590F491E02D5B
:10405000099486E695E06EC08FE595E06BC088E533
:1040600095E068C080914903882319F081E595E0C7
:1040700061C08091470318C088E495E05BC082E48A
:1040800095E058C08BE395E055C08EE295E052C0B4
:1040900080915C03882319F087E295E04BC08BE1A7
:1040A00095E048C08B2D85510E94311745C08CE5A5
:1040B00093E00E94530B882319F48CE095E03AC0FA
:1040C00080E095E037C08CE593E00E94560B882392
:1040D00019F482EF94E02EC083EE94E02BC088EDBB
:1040E00094E028C08FEC94E025C082EC94E022C0DC
:1040F00083EB94E01FC084EA94E01CC085E994E05F
:1041000019C080915903882319F087E894E012C000
:1041100088E794E00FC080915B03882319F08DE657
:1041200094E008C080E694E005C08DE594E002C00C
:1041300089E594E00E94371F2B960FB6F894DEBFF6
:104140000FBECDBFCF91DF911F910F91FF90EF90E8
:10415000DF90CF90BF90089589EA92E00E94973354
:104160000E94691881EF93E00E94371F0E94701827
:1041700082E094E00E94371F08950E94691884E845
:1041800095E00E94371F0E947018809147030E949B
:10419000311768EE73E080E090E00E9404350895E6
:1041A0000F931F93082F80910C05E0910A05F0E012
:1041B000EE0FFF1FEE0FFF1FE55DFB4FE491E0FFE9
:1041C0000AC0002331F1182F16958170682F660FF1
:1041D000660F680F09C011E090910B05891709F46B
:1041E00010E0002359F060E089EA92E0412F0E943C
:1041F000693389EA92E0602F0E94C63680911205E9
:10420000882339F089EA92E060910D05412F0E94E0
:1042100069331F910F910895BF92CF92DF92EF9271
:10422000FF920F931F93CF93DF9380910A05C82FBE
:10423000D0E09E01220F331F220F331FC901865D7C
:104240009B4FFC011491255D3B4FF901249120FF08
:1042500037C000E06C0131C0B0900C05C601602F82
:104260000E94231EE82E8851843030F5802F817003
:10427000F82EFF0CFF0CF80E402F469589EA92E0CD
:104280006F2D0E94693361E00B1160E08E2D0E945A
:104290007E1889EA92E066E574E00E94A0366E2DF1
:1042A000675E89EA92E00E94C636FF2011F481E041
:1042B00001C087E00E942A1F0F5F011768F221C02A
:1042C00000910B0511E080910C05801310E0CC0FDC
:1042D000DD1FCC0FDD1FC65DDB4FCE01602F0E94BE
:1042E000231E482F80E0612F0E94501F602F6F5FB8
:1042F000CE010E94231E482F61E0612781E00E94C9
:10430000501F0E94D0341AE096958795779567954F
:104310001A95D1F7637080915A03882331F0662390
:1043200021F060FF18C081E219C080915C038823EE
:1043300031F0662321F060FF0EC084E50FC080914C
:104340004903882341F0623030F0623031F08091CF
:1043500048038F5B03C080E001C080E50E94D0204D
:10436000DF91CF911F910F91FF90EF90DF90CF9051
:10437000BF9008951F9380910A059091120599238B
:10438000A1F110910D05115010930D0590E0880FCB
:10439000991F880F991F865D9B4F60910C050E94A5
:1043A000231E8431D8F4282F30E02A503040C90130
:1043B000880F991F820F931F880F991F8B5F9C4F47
:1043C0000E942C1E412F50E02AE030E0281B3109CA
:1043D0004217530719F4115010930D0580910D05E4
:1043E000863098F50E94771830C08630A1F087306B
:1043F00028F4813050F1853030F00BC0873099F0CF
:104400008A3018F518C010920A05815080930C0567
:104410001AC081E009C081E080930A0584E080939E
:104420000C0583E010C083E080930A0510920C0510
:1044300010920B050AC093E090930A05982F9550AF
:1044400090930C05865080930B051F910895AF92B1
:10445000BF92DF92EF92FF920F931F93DF93CF9360
:104460000F92CDB7DEB7D82EE0910A0580911205E4
:10447000882309F049C040910C05DD20E9F0442370
:1044800009F439C1F0E0EE0FFF1FEE0FFF1FE55DED
:10449000FB4FE491E0FF04C0415040930C052BC159
:1044A00080910B05481719F4415040930B058091FA
:1044B0000B0580930C051FC18E2F90E0880F991F6C
:1044C000880F991FFC01E65DFB4FE491242F30E03B
:1044D000F0E031972E173F0709F40DC1242F2F5F0D
:1044E00020930C05855D9B4FFC01849180FD03C1E9
:1044F00030E080910B0590E001962817390709F408
:10450000FAC040930B05F7C0F0E0EE0FFF1FEE0F6F
:10451000FF1FCF01865D9B4F60910C050E94231EFB
:10452000282F29830E941F17882309F4E4C00E94C2
:10453000D21B29812431B0F12D31D9F02E3120F454
:104540002C3109F0D8C006C02432F1F0253209F030
:10455000D2C021C08CE593E00E94530B61E0682734
:104560008CE593E00E94030B8CE593E00E94530BD3
:10457000BEC08CE593E00E94560B61E068278CE595
:1045800093E00E941C0BB7C08091590391E08927EA
:1045900080935903B0C080915B0391E08927809399
:1045A0005B03A9C0022F0A5010E05801AA0CBB1CE3
:1045B000A00EB11EAA0CBB1C85E093E0A80EB91E8C
:1045C000C50129830E942C1E40910D05942F9195C1
:1045D000965F3AE0381B81E02981431708F080E0BC
:1045E000981B892F29830E94A01E7C012981DD2030
:1045F00021F4F094E194F108F394C50129830E9419
:104600006C1EF801EE0FFF1FE00FF11FEE0FFF1FF2
:10461000E75FFC4FA591B491E80EF91EED92FC9274
:10462000C5010E94751E29812A3081F4E0914C0356
:10463000F0E0EE0FFF1FEA5FFD4F809116029091B0
:104640001702918380830E94B01B55C02131F9F479
:1046500060911A0270911B026A3071050CF44BC014
:104660007093A3026093A202882777FD8095982F0C
:1046700024E630E040E050E00E94733D6093A402E5
:104680007093A5028093A6029093A70234C02031B4
:1046900001F58091A102082F10E0000F111F000FFB
:1046A000111F085A1D4F60915703709158038827B6
:1046B00077FD8095982F0E94973B20E030E040E204
:1046C00051E40E94FC3AF8016183728383839483EE
:1046D00012C02C3081F48CE593E00E94530B8823A8
:1046E00051F480915C03882331F480915A0388232C
:1046F00011F40E94971B0F90CF91DF911F910F91A2
:10470000FF90EF90DF90BF90AF90089580910A05E1
:1047100090E0880F991F880F991F865D9B4F6091CD
:104720000C050E94231E909112059923E1F48A3012
:1047300051F485E080930A0510920B0580914C039B
:1047400080930C050EC0843081F480930A0590910B
:10475000470390930C0581E0992309F480E080934E
:104760000B0581E0089580E0089580E008951F938F
:10477000182F64EF71E080E090E00E9404350E9401
:1047800069181F3F29F481E294E00E94371F10C08E
:104790008FED93E00E94371F89EA92E068E040E0E5
:1047A0000E946933612F6F5C89EA92E00E94C636ED
:1047B0000E94701889E194E00E94371F60ED77E055
:1047C00080E090E00E9404351F910895CF93DF931D
:1047D000C4EAD5E0CE010E94FF39CE0140E855E29F
:1047E00060E070E00E948139DF91CF9108950F93CE
:1047F0001F93DF93CF930F92CDB7DEB7809147031E
:1048000060914803AE014F5F5F4F2FEF34E003E04C
:1048100015E00E94291869816F3709F483C066FF8B
:1048200007C080EA9FE09093CB048093CA0404C041
:104830001092CB041092CA046F73609307050BEFBC
:1048400014E08091FF0490910005A0910105B091C2
:1048500002052091BE043091BF044091C0045091E4
:10486000C104820F931FA41FB51F8093FB04909374
:10487000FC04A093FD04B093FE04613009F450C021
:10488000613030F0623091F0633009F04BC027C0E6
:1048900060914D0370914E0380914F0390915003AE
:1048A0000E94F60BF801938782873AC06091030556
:1048B00070910405882777FD8095982F0E94973B7B
:1048C00020E030E040E251E40E94FC3A60934D0366
:1048D00070934E0380934F039093500321C06091D7
:1048E000030570910405882777FD8095982F0E9415
:1048F000973B20E030E040E251E40E94FC3A9B010B
:10490000AC01609112027091130280911402909197
:1049100015020E94F83A881F8827881FF8018587AA
:1049200081E001C080E00F90CF91DF911F910F9146
:1049300008956F927F928F929F92AF92BF92CF9283
:10494000DF92EF92FF920F931F9360910305709196
:104950000405882777FD8095982F0E94973B20E0DB
:1049600030E040E251E40E94FC3AD62EC72EB82E29
:10497000A92EE090FB04F090FC040091FD0410913E
:10498000FE048091BE049091BF04A091C004B09138
:10499000C104E81AF90A0A0B1B0B80910705833042
:1049A00020F4813008F064C004C0833009F08EC068
:1049B00065C01E141F04100611067CF0A6019501A7
:1049C000852F942FA32FB22F80934D0390934E03E6
:1049D000A0934F03B093500379C060910505709187
:1049E0000605882777FD8095982F0E94973B20E049
:1049F00030E040E251E40E94FC3A9B01AC01D60158
:104A0000F5016B2F7A2F8F2F9E2F0E94933A3B0137
:104A10004C01C801B7010E94973B9B01AC01C40146
:104A2000B3010E94903C7B018C016091FF04709166
:104A3000000580910105909102050E94953B9B0124
:104A4000AC01C801B7010E94FC3A9B01AC01D60140
:104A5000F5016B2F7A2F8F2F9E2F0E94933A609330
:104A60004D0370934E0380934F03909350033FC0C8
:104A70001E141F0410061106D4F128C0E090120283
:104A8000F09013020091140210911502C801B701B1
:104A9000D601F5012B2F3A2F4F2F5E2F0E94F83AA7
:104AA00087FF04C080910805882309F5A6019501B8
:104AB000652F7C2D832F9A2DA80197010E94F83A2B
:104AC00087FF04C080910805882389F080914803FE
:104AD0000E94F21D80914803803138F48F5F8093EB
:104AE00048030E94F723882311F40E941A1E1F9185
:104AF0000F91FF90EF90DF90CF90BF90AF909F907D
:104B00008F907F906F900895109248030E949E1D91
:104B100081E0809349030E94F723882311F40E94C7
:104B20001A1E08950F931F9380910A0590E0880F35
:104B3000991F880F991F865D9B4F60910C050E94FD
:104B4000231E082F80911205882369F110910D050D
:104B50001F5F10930D050431E0F4402F50E04A50E0
:104B600050409A01220F331F240F351F220F331F8D
:104B7000C9018B5F9C4F0E942C1E412F50E02AE000
:104B800030E0281B31094217530719F41F5F1093B7
:104B90000D0580910D058B3018F4043108F4C6C062
:104BA0000E947718C3C00A3008F047C0043079F477
:104BB00080914903882319F00E941A1EB7C0809182
:104BC0005C03882309F0B2C00E948425AFC0009323
:104BD0000A05053069F0063018F40430A1F405C068
:104BE000073059F0083079F40BC08091470302C0B8
:104BF00080914C0380930C0508C08091A102FACFEC
:104C000080912002F7CF10920C0540910C05E02F07
:104C1000F0E0EE0FFF1FEE0FFF1FE65DFB4FE4918C
:104C2000242F30E08E2F90E002972817390714F0D8
:104C30004E2F425040930B0579C0043188F4809187
:104C40005A03882309F459C00A3009F056C010925B
:104C50005A030E94971B1092CB041092CA0466C09C
:104C6000013270F40E3108F04CC00C3108F045C030
:104C70000831E8F5043181F0043108F457C02DC043
:104C8000063218F40432C8F544C0063209F446C0AE
:104C9000073209F04BC045C080914903882309F0D1
:104CA00045C080915C03882399F44091BA045091E7
:104CB000BB042091BC043091BD04009123021091EB
:104CC00024028CE593E0609122020E94060C2EC023
:104CD0008CE593E00E94720B29C0055100934703B5
:104CE00080915C038823C1F40E94842515C008517B
:104CF00000934C030E94B01B0FC0802F0E94B81875
:104D000015C00E510093A10288E592E00E94661A38
:104D100003C00152009320020E94D21B0E94BA21BC
:104D200005C00E946717E0E0F0E009951F910F9120
:104D30000895BF92CF92DF92EF92FF920F931F934D
:104D4000DF93CF9300D000D0CDB7DEB70AEC10E0F0
:104D5000BB2443E0C42ED12CCC0EDD1EC80160E87C
:104D600070E00E94D7187C01C8010297B6010E942A
:104D7000C8072B813C81E216F30631F08B2D0E948F
:104D8000B7238B2D0E948E17B3940E571F4F8B2D78
:104D9000833021F70E94D81C882309F4E2C082E006
:104DA00090E0BE016F5F7F4F0E94BF076981617015
:104DB0008CE593E00E94030B6981669561708CE538
:104DC00093E00E941C0B8981982F9695969593707D
:104DD00090932002982F9295937090934C0391E0BA
:104DE00086FF90E090935903982F991F9927991F58
:104DF00090935B0383E090E0BE016E5F7F4F0E9463
:104E0000BF078A81982F9370909347038695869564
:104E100083708093A10284E090E062E072E00E94DF
:104E2000C80786E090E064E072E00E94C80788E06E
:104E300090E06AE473E00E94C8073AE0E32EF12CA8
:104E400000E010E0B801660F771F6A5F7D4FC70171
:104E50000E94C8070F5F1F4F82E090E0E80EF91E26
:104E60000430110579F70E94B01B82E190E062E204
:104E700072E00E94BF0783E190E06AEB74E00E9459
:104E8000C80785E190E06CEB74E00E94C80787E1F9
:104E900090E063E272E00E94C80789E190E065E576
:104EA00073E00E94C8070E94971B8BE190E06CE1C1
:104EB00072E00E94C8078DE190E06EE172E00E940E
:104EC000C80798E4E92EF12C00E010E0B801660F65
:104ED000771F660F771F675A7D4FC7010E94DD0756
:104EE0000F5F1F4F84E090E0E80EF91E07301105B8
:104EF00069F7E091A102F0E0EE0FFF1FEE0FFF1F38
:104F0000E85AFD4F61817281838194810E94F60B82
:104F1000909358038093570388EA90E062EA72E026
:104F20000E94C8070091A2021091A3020A30110545
:104F30009CF0B801882777FD8095982F24E630E013
:104F400040E050E00E94733D6093A4027093A5027C
:104F50008093A6029093A70210931B0200931A025B
:104F600005C08FEF0E94B7230E94EA1B0F900F909D
:104F70000F900F90CF91DF911F910F91FF90EF90C5
:104F8000DF90CF90BF900895EF92FF920F931F9301
:104F900018E0812F62E00E949D351F5F1D30C9F728
:104FA00083E161E00E949D35F89489EF8093B3001E
:104FB0008091B00082608093B00080917000826028
:104FC0008093700083B5826083BD8091B10087605B
:104FD0008093B100789489EA92E060E142E020E0B9
:104FE0000E949F330E94AC2089E190E0A0E0B0E0F5
:104FF0008093C2049093C304A093C404B093C504E7
:105000000E94771B0E94992688E592E00E94661A0A
:1050100081E161E00E949D350E94E623E090BE049C
:10502000F090BF040091C0041091C1040E94D034DC
:105030009B01AC01C801B7016053784F8F4F9F4F60
:10504000621B730B840B950B6A307105810591050A
:1050500024F46AE070E080E090E00E9404350E9451
:10506000771B0E94B01B8CE593E068EE73E00E9412
:105070000A0A8CE593E040E050E0BA0100E010E05D
:1050800028EC32E40E945D0A6091020270910302F2
:10509000409104025091050220914A0330914B0344
:1050A0008CE593E00E943D0980912002882339F429
:1050B0008CE593E060E00E94030B0E94971B0E9426
:1050C000071D882371F080912002823041F40E94F4
:1050D000BD2081E0809349030E94F72302C00E9413
:1050E000161E0E94771B809158028823C1F0E09021
:1050F000BE04F090BF040091C0041091C10488E583
:1051000092E00E94C21A6E0D7F1D801F911F609356
:10511000C6047093C7048093C8049093C904109286
:1051200021021F910F91FF90EF900895CF93DF938D
:10513000EC018A819B8182309105B1F18330910528
:1051400009F445C081309105B1F00E940D19009716
:1051500009F455C0998388830E94D034665F7F4FDD
:105160008F4F9F4F6C837D838E839F8381E090E080
:105170009B838A8344C00E940D192881398182173C
:105180009307E9F50E94D0349B01AC018C819D818D
:10519000AE81BF81281739074A075B0780F182E09B
:1051A00090E09B838A8328C00E940D19009721F507
:1051B00083E090E09B838A830E94D034665F7F4FB8
:1051C0008F4F9F4F6C837D838E839F8315C00E947A
:1051D0000D19009789F40E94D0349B01AC018C8199
:1051E0009D81AE81BF81281739074A075B0720F0F0
:1051F000198218821B821A822881398102C020E01C
:1052000030E0C901DF91CF9108956F927F928F9224
:105210009F92AF92BF92CF92DF92EF92FF920F9345
:105220001F930E94771BE0905103F090520300916E
:105230005303109154030E94D0343B014C01A090C1
:10524000A402B090A502C090A602D090A702C80107
:10525000B7012AE037ED43E25CE30E94903C7B011A
:105260008C01C601B5010E94953B9B01AC01C801B0
:10527000B7010E94903C0E94693B7B018C01C401F4
:10528000B301A60195010E94A53DDC01CB0161E0BF
:105290008E159F05A007B10708F060E081E10E942C
:1052A000E23580915802882309F44CC06091C6040D
:1052B0007091C7048091C8049091C9040E94821B18
:1052C000882309F43FC088E592E00E94D71A7B0149
:1052D0008C0160930E0270930F02809310029093E2
:1052E0001102A80197010E94353D882369F4E092DC
:1052F0001202F09213020093140210931502C801D7
:10530000B7010E94F60B02C081EE91EB9093190257
:1053100080931802E090C604F090C7040091C8047E
:105320001091C90488E592E00E94C21A6E0D7F1D9B
:10533000801F911F6093C6047093C7048093C804B4
:105340009093C90480914903882321F00E949924F5
:105350000E94B01B8CE593E00E946C1380915C036B
:10536000882331F48CE593E00E94530B882371F07D
:1053700060915103709152038091530390915403B3
:105380000E94F60B90935603809355038091590326
:10539000882309F443C080915B03882311F01092A5
:1053A0005A03809118029091190221EB813E9207D5
:1053B00081F120911C0230911D02821793075CF04D
:1053C00020911E0230911F022817390724F0809186
:1053D0005A038823F1F080E090E0DC0180935103D0
:1053E00090935203A0935303B09354031092560327
:1053F0001092550381E080935A038091CA049091E2
:10540000CB0497FD06C08FEF9CEF9093CB04809365
:10541000CA0480915A03882339F402C010925A03B7
:105420001092CB041092CA048091D804882309F00A
:1054300032C10E94771B8EEB92E00E949628E82EE4
:105440001091CD04882309F455C01123A9F42091AB
:10545000BE043091BF044091C0045091C104265055
:105460003F4F4F4F5F4F2093CF043093D004409372
:10547000D1045093D2043BC01430C1F16091CF04E9
:105480007091D0048091D1049091D2040E94821B2B
:10549000882361F18091CC042091BE043091BF0437
:1054A0004091C0045091C104882369F02A563F4FAF
:1054B0004F4F5F4F2093CF043093D0044093D104DB
:1054C0005093D20450C08091CE048F5F8093CE045D
:1054D000225A3E4F4F4F5F4F2093CF043093D0045A
:1054E0004093D1045093D2041E2D01C010E0E092ED
:1054F000CD041EC01123B9F1143009F0C6C060916B
:10550000CF047091D0048091D1049091D2046A5656
:105510007F4F8F4F9F4F0E94821B882309F4B5C095
:105520000E948623B4C010E01092CD041092CE04E5
:105530001123C9F081E08093CC04143028F4123098
:1055400048F4113081F403C0143069F40AC00E9499
:10555000BA2109C081E0123009F080E00E942722C0
:1055600002C00E9492250E94771B6091C204709134
:10557000C3048091C4049091C5040E94821B8823B7
:1055800021F48091CC048823C1F00E940C21109258
:10559000CC048091C2049091C304A091C404B09142
:1055A000C50486509F4FAF4FBF4F8093C204909366
:1055B000C304A093C404B093C50480915802882307
:1055C000B1F480E090E0A0ECBFE780930E029093EE
:1055D0000F02A0931002B093110281EE91EB909311
:1055E00019028093180288E592E00E94661A0E94D0
:1055F000771B8091D304882399F06091D404709133
:10560000D5048091D6049091D7040E94821B8823F0
:1056100039F01092D30484E20E94D0200E94EA1B49
:1056200084EA95E00E946138182F0AE02BC084EAD2
:1056300095E00E9490389091FA04992339F48A30C9
:1056400001F18D30F1F08823E1F002C0903240F496
:10565000E92FF0E0E752FB4F80839F5F9093FA04BD
:105660008A3011F08D3069F4E091FA04F0E0E852EC
:10567000FB4F00838AE20E94D0200E94A62C109249
:10568000FA041150112399F606C08091CE048823A4
:1056900009F44ACF48CF1F910F91FF90EF90DF9010
:1056A000CF90BF90AF909F908F907F906F90089514
:1056B00080912102882339F481E08093D8040E94EC
:1056C00005291092D8040895CF93DF93BC01C4EA52
:1056D000D5E0CE014AE050E00E948F37CE010E9413
:1056E000CE360E94582BDF91CF910895AB01BC01BB
:1056F00084EA95E022E030E00E944F380E94582B67
:105700000895682F84EA95E04AE050E00E944C3703
:105710000E94582B0895AB01BC0184EA95E02AE071
:1057200030E00E943D370E94582B0895682F84EA8C
:1057300095E00E94C6360E94582B0895CF92DF92C2
:10574000EF92FF920F931F93DF93CF930F92CDB7FA
:10575000DEB7082F82E20E94962B82E8089FC001E4
:1057600011248C0106531F4F59EDC52ED12CC80EA4
:10577000D91E7E010894E11CF11CC801B7010E94EA
:10578000BF076981662349F084EA95E00E94C63824
:105790000F5F1F4F0C151D0581F782E20E94962BAB
:1057A0000F90CF91DF911F910F91FF90EF90DF90BD
:1057B000CF900895AB01BC0184EA95E02AE030E087
:1057C0000E9454370E94582B0895CF93DF93BC0159
:1057D000C4EAD5E0CE010E94A036CE010E94CE36AA
:1057E0000E94582BDF91CF9108950E94762B88E973
:1057F00095E00E94E52B0895CF93DF93682FC4EACC
:10580000D5E0CE014AE050E00E944C37CE010E9424
:10581000CE360E94582BDF91CF910895CF93DF931E
:10582000682FC4EAD5E0CE0170E04AE050E00E9463
:105830008F37CE010E94CE360E94582BDF91CF9138
:105840000895BC0184EA95E00E94A0360E94582B7E
:105850000895BC0184EA95E00E94A0360E94582B6E
:10586000089588EE93E00E94292C0895BC0184EAF3
:1058700095E04AE050E00E948F370E94582B08952F
:10588000BC0184EA95E00E94C3360E94582B08951B
:10589000DF93CF93CDB7DEB728970FB6F894DEBF6E
:1058A0000FBECDBF9C01462FCE010196B9010E94CB
:1058B00047160E94402C28960FB6F894DEBF0FBE04
:1058C000CDBFCF91DF91089563E00E94482C0895E9
:1058D0000E94642C84EA95E00E94CE36089561E02F
:1058E0000E94482C08950E946F2C88E995E00E9440
:1058F000E52B08950E946F2C84EA95E00E94CE3635
:105900000895CF93DF93BC01C4EAD5E0CE010E9495
:10591000A036CE010E94CE360E94582BDF91CF9147
:105920000895CF93DF93C4EAD5E0CE0140E855E275
:1059300060E070E02AE030E00E945437CE010E941F
:10594000CE360E94582BDF91CF9108958F929F926F
:10595000AF92BF92CF92DF92EF92FF920F931F937D
:10596000DF93CF93CDB7DEB768970FB6F894DEBF5D
:105970000FBECDBF4091FA0441504093FA04242F4A
:1059800030E0F901E752FB4F80818A3009F0D8C43A
:10599000F090D904F1E2CF2EEE2402E010E003C033
:1059A000C62E01C0E62E8E2D90E0EC2DF0E0BC015D
:1059B0006F5F7F4F6E177F07F9F48C01000F111F87
:1059C000F801EF5BFC4FE491AF2DBB27A7FDB0952D
:1059D000F0E0EA17FB0761F08B01000F111FF801DF
:1059E000EF5BFC4FE491F0E0EA17FB0709F0A8C475
:1059F0000E5B1C4FF80116C08E0F9F1FB8010E944E
:105A0000923D862F90E0880F991FFC01EF5BFC4FC1
:105A1000E491EF150CF4C6CFFE160CF4C1CF8E5BEB
:105A20009C4FFC0104910F3009F48AC407FF2EC17A
:105A30008091DA048F3309F029C18091DB048A3028
:105A400009F07EC48F2D992787FD9095A92FB92F36
:105A5000815490408533910508F072C4855A9F4F58
:105A6000FC01EE0FFF1F0590F491E02D0994809149
:105A70005C03F7C08091BA049091BB040E946F2C24
:105A800080E20E94962B8091BC049091BD040E94FC
:105A9000642C80E20E94962B809123029091240234
:105AA0000E94642B3FC4E091A102F0E0EE0FFF1FC3
:105AB000EE0FFF1FE85AFD4F61817281838194814F
:105AC0000E94F60BD5C00E94912C2CC48CE593E06B
:105AD0000E94560BBEC080914A0390914B039FC019
